{
  "contractName": "DiaNFT",
  "abi": [
    {
      "constant": true,
      "inputs": [
        {
          "name": "",
          "type": "bytes32"
        }
      ],
      "name": "data",
      "outputs": [
        {
          "name": "girdleCode",
          "type": "string"
        },
        {
          "name": "owner",
          "type": "bytes32"
        }
      ],
      "payable": false,
      "stateMutability": "view",
      "type": "function"
    },
    {
      "inputs": [
        {
          "name": "_registry",
          "type": "address"
        }
      ],
      "payable": false,
      "stateMutability": "nonpayable",
      "type": "constructor"
    },
    {
      "constant": true,
      "inputs": [],
      "name": "reportRegistry",
      "outputs": [
        {
          "name": "",
          "type": "address"
        }
      ],
      "payable": false,
      "stateMutability": "view",
      "type": "function"
    },
    {
      "constant": false,
      "inputs": [
        {
          "name": "_anchorId",
          "type": "bytes32"
        },
        {
          "name": "_droot",
          "type": "bytes32"
        },
        {
          "name": "_sigs",
          "type": "bytes32"
        }
      ],
      "name": "checkAnchor",
      "outputs": [
        {
          "name": "",
          "type": "bool"
        }
      ],
      "payable": false,
      "stateMutability": "nonpayable",
      "type": "function"
    },
    {
      "constant": false,
      "inputs": [
        {
          "name": "_owner",
          "type": "bytes32"
        },
        {
          "name": "_girdleCode",
          "type": "string"
        },
        {
          "name": "_anchor",
          "type": "bytes32"
        },
        {
          "name": "_data_root",
          "type": "bytes32"
        },
        {
          "name": "_signature_root",
          "type": "bytes32"
        }
      ],
      "name": "mint",
      "outputs": [
        {
          "name": "",
          "type": "bytes32"
        }
      ],
      "payable": false,
      "stateMutability": "nonpayable",
      "type": "function"
    },
    {
      "constant": false,
      "inputs": [
        {
          "name": "a",
          "type": "uint256[2]"
        },
        {
          "name": "b",
          "type": "uint256[2][2]"
        },
        {
          "name": "c",
          "type": "uint256[2]"
        },
        {
          "name": "input",
          "type": "uint256[5]"
        }
      ],
      "name": "verifyTx",
      "outputs": [
        {
          "name": "",
          "type": "bool"
        }
      ],
      "payable": false,
      "stateMutability": "nonpayable",
      "type": "function"
    },
    {
      "constant": false,
      "inputs": [
        {
          "name": "_data_root",
          "type": "bytes32"
        },
        {
          "name": "_girdleCode",
          "type": "string"
        },
        {
          "name": "points",
          "type": "uint256[8]"
        }
      ],
      "name": "verify",
      "outputs": [],
      "payable": false,
      "stateMutability": "nonpayable",
      "type": "function"
    }
  ],
  "bytecode": "0x608060405234801561001057600080fd5b50604051602080610e038339810180604052602081101561003057600080fd5b81019080805190602001909291905050508073ffffffffffffffffffffffffffffffffffffffff166301ffc9a76304d466b260e01b6040518263ffffffff1660e01b815260040180827bffffffffffffffffffffffffffffffffffffffffffffffffffffffff19167bffffffffffffffffffffffffffffffffffffffffffffffffffffffff1916815260200191505060206040518083038186803b1580156100d757600080fd5b505afa1580156100eb573d6000803e3d6000fd5b505050506040513d602081101561010157600080fd5b8101908080519060200190929190505050610184576040517f08c379a000000000000000000000000000000000000000000000000000000000815260040180806020018281038252601b8152602001807f6e6f7420612076616c696420616e63686f72207265676973747279000000000081525060200191505060405180910390fd5b80600260006101000a81548173ffffffffffffffffffffffffffffffffffffffff021916908373ffffffffffffffffffffffffffffffffffffffff16021790555050610c2e806101d56000396000f3fe608060405234801561001057600080fd5b50600436106100625760003560e01c80630147fb0c1461006757806333a5bae41461011557806337941dea1461028e5780635078fd82146102d85780638e7b3e1e14610332578063ecf9e9ef1461043a575b600080fd5b6100936004803603602081101561007d57600080fd5b8101908080359060200190929190505050610531565b6040518080602001838152602001828103825284818151815260200191508051906020019080838360005b838110156100d95780820151818401526020810190506100be565b50505050905090810190601f1680156101065780820380516001836020036101000a031916815260200191505b50935050505060405180910390f35b61027460048036036101a081101561012c57600080fd5b8101908080604001906002806020026040519081016040528092919082600260200280828437600081840152601f19601f82011690508083019250505050505091929192908060800190600280602002604051908101604052809291906000905b828210156101e1578382604002016002806020026040519081016040528092919082600260200280828437600081840152601f19601f8201169050808301925050505050508152602001906001019061018d565b50505050919291929080604001906002806020026040519081016040528092919082600260200280828437600081840152601f19601f82011690508083019250505050505091929192908060a001906005806020026040519081016040528092919082600560200280828437600081840152601f19601f82011690508083019250505050505091929192905050506105ed565b604051808215151515815260200191505060405180910390f35b6102966105fb565b604051808273ffffffffffffffffffffffffffffffffffffffff1673ffffffffffffffffffffffffffffffffffffffff16815260200191505060405180910390f35b610318600480360360608110156102ee57600080fd5b81019080803590602001909291908035906020019092919080359060200190929190505050610625565b604051808215151515815260200191505060405180910390f35b610438600480360361014081101561034957600080fd5b81019080803590602001909291908035906020019064010000000081111561037057600080fd5b82018360208201111561038257600080fd5b803590602001918460018302840111640100000000831117156103a457600080fd5b91908080601f016020809104026020016040519081016040528093929190818152602001838380828437600081840152601f19601f8201169050808301925050505050505091929192908061010001906008806020026040519081016040528092919082600860200280828437600081840152601f19601f8201169050808301925050505050509192919290505050610798565b005b61051b600480360360a081101561045057600080fd5b81019080803590602001909291908035906020019064010000000081111561047757600080fd5b82018360208201111561048957600080fd5b803590602001918460018302840111640100000000831117156104ab57600080fd5b91908080601f016020809104026020016040519081016040528093929190818152602001838380828437600081840152601f19601f820116905080830192505050505050509192919290803590602001909291908035906020019092919080359060200190929190505050610a3c565b6040518082815260200191505060405180910390f35b6003602052806000526040600020600091509050806000018054600181600116156101000203166002900480601f0160208091040260200160405190810160405280929190818152602001828054600181600116156101000203166002900480156105dd5780601f106105b2576101008083540402835291602001916105dd565b820191906000526020600020905b8154815290600101906020018083116105c057829003601f168201915b5050505050908060010154905082565b600060019050949350505050565b6000600260009054906101000a900473ffffffffffffffffffffffffffffffffffffffff16905090565b600080600260009054906101000a900473ffffffffffffffffffffffffffffffffffffffff1673ffffffffffffffffffffffffffffffffffffffff166304d466b2866040518263ffffffff1660e01b815260040180828152602001915050604080518083038186803b15801561069a57600080fd5b505afa1580156106ae573d6000803e3d6000fd5b505050506040513d60408110156106c457600080fd5b81019080805190602001909291908051906020019092919050505090508091505060026106f18585610ac4565b6040518082805190602001908083835b602083106107245780518252602082019150602081019050602083039250610701565b6001836020036101000a038019825116818451168082178552505050505050905001915050602060405180830381855afa158015610766573d6000803e3d6000fd5b5050506040513d602081101561077b57600080fd5b810190808051906020019092919050505081149150509392505050565b600082511415610810576040517f08c379a000000000000000000000000000000000000000000000000000000000815260040180806020018281038252601e8152602001807f676972646c65436f6465206d757374206265206e6f7420656d7074792e2e000081525060200191505060405180910390fd5b610818610b6f565b60405180604001604052808360006008811061083057fe5b602002015181526020018360016008811061084757fe5b60200201518152509050610859610b91565b604051806040016040528060405180604001604052808660026008811061087c57fe5b602002015181526020018660036008811061089357fe5b602002015181525081526020016040518060400160405280866004600881106108b857fe5b60200201518152602001866005600881106108cf57fe5b602002015181525081525090506108e4610b6f565b6040518060400160405280856006600881106108fc57fe5b602002015181526020018560076008811061091357fe5b60200201518152509050610925610bbe565b600061093087610b13565b905061093b81610b3e565b8360006005811061094857fe5b602002018460016005811061095957fe5b602002018281525082815250505061097088610b3e565b8360026005811061097d57fe5b602002018460036005811061098e57fe5b60200201828152508281525050506001826004600581106109ab57fe5b6020020181815250506109c0858585856105ed565b610a32576040517f08c379a000000000000000000000000000000000000000000000000000000000815260040180806020018281038252601c8152602001807f6661696c656420746f20766572696679207468652070726f6f662e2e0000000081525060200191505060405180910390fd5b5050505050505050565b6000610a49848484610625565b610abb576040517f08c379a00000000000000000000000000000000000000000000000000000000081526004018080602001828103825260148152602001807f616e63686f722d726f6f742d6661696c65642e2e00000000000000000000000081525060200191505060405180910390fd5b95945050505050565b606080604080519080825280601f01601f191660200182016040528015610afa5781602001600182028038833980820191505090505b5090508360208201528260408201528091505092915050565b60006060829050600081511415610b30576000801b915050610b39565b60208301519150505b919050565b60008060008390506000608082901c9050600060808084901b901c90508160001c8160001c94509450505050915091565b6040518060400160405280600290602082028038833980820191505090505090565b60405180608001604052806002905b610ba8610be0565b815260200190600190039081610ba05790505090565b6040518060a00160405280600590602082028038833980820191505090505090565b604051806040016040528060029060208202803883398082019150509050509056fea165627a7a72305820efccce68ecc7faf376a04c46fbe1037bae8c85b368ccc329bc004598c7e209830029",
  "source": "pragma solidity >=0.4.25 <0.6.0;\n\nimport \"./ReportRegistry.sol\";\n\n\ncontract DiaNFT {\n    //==== Anchor by AnchorRegistry =====//\n    bytes4 internal constant InterfaceId_AnchorRegistry = 0x04d466b2;\n  /*\n   * 0x04d466b2 ===\n   *   bytes4(keccak256('getAnchorById(bytes32)')) \n   */\n    // Anchor Registry\n    address internal anchorRegisty_;\n    // The Ownable Anchor\n    struct OwnedAnchor {\n        bytes32 reportId;\n        bytes32 rootHash;\n    }\n    // Mapping from details to Report ID\n    mapping (uint256 => OwnedAnchor) internal reportDetails_;\n\n\n    //ReportRegistry public   registry;   // check validity of requests for minting new DiaNFT\n    address internal registry;\n\n    struct TokenData {\n        string      girdleCode; // public\n        bytes32     owner;      // private\n    }\n\n    mapping (bytes32 => TokenData) public data;\n\n    constructor (address _registry) public {\n        require (ReportRegistry(_registry).supportsInterface(InterfaceId_AnchorRegistry), \"not a valid anchor registry\");\n        registry = _registry;\n        \n    }\n\n    function reportRegistry () external view returns (address) {\n        return registry;\n    }\n\n    function checkAnchor(bytes32 _anchorId, bytes32 _droot, bytes32 _sigs) public returns (bool) {\n        bytes32 root;\n        (, root) = ReportRegistry(registry).getAnchorById (_anchorId);  //reportRoot - merkle root for precise proof of 'the Report'\n    \n        return root == sha256(concat(_droot, _sigs));   // Temp..\n    }\n\n    function mint ( bytes32 _owner, string memory _girdleCode, \n                    bytes32 _anchor, bytes32 _data_root, bytes32 _signature_root ) public returns (bytes32) {\n        // Check if the request has been registered in the anchor (ReportRegistry)\n        require (checkAnchor (_anchor, _data_root, _signature_root), \"anchor-root-failed..\");\n\n    }\n\n    // Temp for compiling the contract.... will be removed when verifier.sol is created by zokrates.\n    function verifyTx ( uint[2] memory a, uint[2][2] memory b, uint[2] memory c, \n                        uint[5] memory input) public returns (bool) {\n        return true;\n    }\n\n\n\n    function verify ( bytes32 _data_root, string memory _girdleCode, uint[8] memory points) public {\n        // _girdleCode must be not empty..\n        require (bytes(_girdleCode).length != 0, \"girdleCode must be not empty..\");\n\n        uint[2] memory a = [points[0], points[1]];\n        uint[2][2] memory b = [[points[2], points[3]], [points[4], points[5]]];\n        uint[2] memory c = [points[6], points[7]];\n\n        // intputs :\n        uint[5] memory input;\n        bytes32 b_girdleCode = stringToBytes32(_girdleCode);\n        (input[0], input[1]) = unpack (b_girdleCode);\n        (input[2], input[3]) = unpack (_data_root);\n        input[4] = 1;\n\n        require (verifyTx (a,b,c, input), \"failed to verify the proof..\");\n\n    }\n\n    //----- Utils -----\n    function concat(bytes32 b1, bytes32 b2) pure internal returns (bytes memory) {\n        bytes memory result = new bytes(64);\n        assembly {\n            mstore (add(result, 32), b1)\n            mstore (add(result, 64), b2)\n        }\n        return result;\n    }\n\n    // code from http://bit.ly/2Py2ZB1\n    function stringToBytes32(string memory source) pure internal returns (bytes32 result) {\n        bytes memory tempEmptyStringTest = bytes(source);\n        if (tempEmptyStringTest.length == 0) {\n            return 0x0;\n        }\n\n        assembly {\n            result := mload(add(source, 32))\n        }\n    }\n\n    // unpack - takes one bytes32 arg and turns it into two uint256 to make it fit into a field element\n    function unpack (bytes32 x) pure internal returns (uint, uint) {\n        bytes32 a = bytes32(x);\n        bytes32 b = (a >> 128);\n        bytes32 c = ((a << 128) >> 128);\n\n        return (uint(b), uint(c));\n    }\n\n\n\n/*\n    function checkReportValidity (string memory girdleCode, bytes32 droot, bytes32 sigs) view public returns (bool) {\n        bytes32 root;\n        (, root, ) = registry.getReportbyCode (girdleCode);\n        \n        return root == sha256(concat(droot, sigs));\n    }\n*/\n\n}",
  "sourcePath": "/home/dsi/base/zk-diachain/ethereum/contracts/DiaNFT.sol",
  "compiler": {
    "name": "solc",
    "version": "0.5.8+commit.23d335f2.Emscripten.clang"
  },
  "schemaVersion": "3.0.16",
  "updatedAt": "2019-10-30T13:13:48.870Z",
  "devdoc": {
    "methods": {}
  },
  "userdoc": {
    "methods": {}
  }
}