{
  "contractName": "DiaNFT",
  "abi": [
    {
      "constant": true,
      "inputs": [],
      "name": "registry",
      "outputs": [
        {
          "name": "",
          "type": "address"
        }
      ],
      "payable": false,
      "stateMutability": "view",
      "type": "function"
    },
    {
      "constant": true,
      "inputs": [
        {
          "name": "",
          "type": "uint256"
        }
      ],
      "name": "data",
      "outputs": [
        {
          "name": "girdleCode",
          "type": "string"
        },
        {
          "name": "owner",
          "type": "bytes32"
        }
      ],
      "payable": false,
      "stateMutability": "view",
      "type": "function"
    },
    {
      "inputs": [
        {
          "name": "_registry",
          "type": "address"
        }
      ],
      "payable": false,
      "stateMutability": "nonpayable",
      "type": "constructor"
    },
    {
      "constant": true,
      "inputs": [
        {
          "name": "girdleCode",
          "type": "string"
        },
        {
          "name": "droot",
          "type": "bytes32"
        },
        {
          "name": "sigs",
          "type": "bytes32"
        }
      ],
      "name": "checkReportValidity",
      "outputs": [
        {
          "name": "",
          "type": "bool"
        }
      ],
      "payable": false,
      "stateMutability": "view",
      "type": "function"
    }
  ],
  "bytecode": "0x608060405234801561001057600080fd5b5060405160208061064f8339810180604052602081101561003057600080fd5b8101908080519060200190929190505050806000806101000a81548173ffffffffffffffffffffffffffffffffffffffff021916908373ffffffffffffffffffffffffffffffffffffffff160217905550506105be806100916000396000f3fe608060405234801561001057600080fd5b50600436106100415760003560e01c806319c9b11c146100465780637b1039991461012d578063f0ba844014610177575b600080fd5b6101136004803603606081101561005c57600080fd5b810190808035906020019064010000000081111561007957600080fd5b82018360208201111561008b57600080fd5b803590602001918460018302840111640100000000831117156100ad57600080fd5b91908080601f016020809104026020016040519081016040528093929190818152602001838380828437600081840152601f19601f8201169050808301925050505050505091929192908035906020019092919080359060200190929190505050610225565b604051808215151515815260200191505060405180910390f35b610135610462565b604051808273ffffffffffffffffffffffffffffffffffffffff1673ffffffffffffffffffffffffffffffffffffffff16815260200191505060405180910390f35b6101a36004803603602081101561018d57600080fd5b8101908080359060200190929190505050610487565b6040518080602001838152602001828103825284818151815260200191508051906020019080838360005b838110156101e95780820151818401526020810190506101ce565b50505050905090810190601f1680156102165780820380516001836020036101000a031916815260200191505b50935050505060405180910390f35b6000806000809054906101000a900473ffffffffffffffffffffffffffffffffffffffff1673ffffffffffffffffffffffffffffffffffffffff1663ccbd9137866040518263ffffffff1660e01b81526004018080602001828103825283818151815260200191508051906020019080838360005b838110156102b557808201518184015260208101905061029a565b50505050905090810190601f1680156102e25780820380516001836020036101000a031916815260200191505b509250505060006040518083038186803b1580156102ff57600080fd5b505afa158015610313573d6000803e3d6000fd5b505050506040513d6000823e3d601f19601f82011682018060405250606081101561033d57600080fd5b81019080805164010000000081111561035557600080fd5b8281019050602081018481111561036b57600080fd5b815185600182028301116401000000008211171561038857600080fd5b50509291906020018051906020019092919080519060200190929190505050909150508091505060026103bb8585610543565b6040518082805190602001908083835b602083106103ee57805182526020820191506020810190506020830392506103cb565b6001836020036101000a038019825116818451168082178552505050505050905001915050602060405180830381855afa158015610430573d6000803e3d6000fd5b5050506040513d602081101561044557600080fd5b810190808051906020019092919050505081149150509392505050565b6000809054906101000a900473ffffffffffffffffffffffffffffffffffffffff1681565b6001602052806000526040600020600091509050806000018054600181600116156101000203166002900480601f0160208091040260200160405190810160405280929190818152602001828054600181600116156101000203166002900480156105335780601f1061050857610100808354040283529160200191610533565b820191906000526020600020905b81548152906001019060200180831161051657829003601f168201915b5050505050908060010154905082565b606080604080519080825280601f01601f1916602001820160405280156105795781602001600182028038833980820191505090505b509050836020820152826040820152809150509291505056fea165627a7a7230582070564180dfda67de08eedf8776e0b6b016be3f3c7c6956fbadea3a378604a83d0029",
  "source": "pragma solidity >=0.4.25 <0.6.0;\n\nimport \"./ReportRegistry.sol\";\n\n\ncontract DiaNFT {\n    \n    ReportRegistry public   registry;   // check validity of requests for minting new DiaNFT\n\n    struct TokenData {\n        string      girdleCode; // public\n        bytes32     owner;      // private\n    }\n\n    mapping (uint => TokenData) public data;\n\n    constructor (address _registry) public {\n        registry = ReportRegistry(_registry);\n    }\n\n    function checkReportValidity (string memory girdleCode, bytes32 droot, bytes32 sigs) view public returns (bool) {\n        bytes32 root;\n        (, root, ) = registry.getReportbyCode (girdleCode);\n        \n        return root == sha256(concat(droot, sigs));\n    }\n\n    //----- Utils -----\n    function concat(bytes32 b1, bytes32 b2) pure internal returns (bytes memory) {\n        bytes memory result = new bytes(64);\n        assembly {\n            mstore (add(result, 32), b1)\n            mstore (add(result, 64), b2)\n        }\n        return result;\n    }\n\n}",
  "sourcePath": "/home/dsi/base/zk-diachain/ethereum/contracts/DiaNFT.sol",
  "compiler": {
    "name": "solc",
    "version": "0.5.8+commit.23d335f2.Emscripten.clang"
  },
  "schemaVersion": "3.0.16",
  "updatedAt": "2019-10-28T10:46:24.885Z",
  "devdoc": {
    "methods": {}
  },
  "userdoc": {
    "methods": {}
  }
}