{
  "contractName": "ReportRegistry",
  "abi": [
    {
      "constant": true,
      "inputs": [
        {
          "name": "",
          "type": "uint256"
        }
      ],
      "name": "registeredReport",
      "outputs": [
        {
          "name": "girdleCode",
          "type": "string"
        },
        {
          "name": "cut",
          "type": "string"
        },
        {
          "name": "color",
          "type": "string"
        },
        {
          "name": "clarity",
          "type": "string"
        },
        {
          "name": "carat",
          "type": "string"
        },
        {
          "name": "remarks",
          "type": "string"
        },
        {
          "name": "hashedReport",
          "type": "bytes32"
        },
        {
          "name": "owner",
          "type": "bytes32"
        }
      ],
      "payable": false,
      "stateMutability": "view",
      "type": "function"
    },
    {
      "inputs": [],
      "payable": false,
      "stateMutability": "nonpayable",
      "type": "constructor"
    },
    {
      "constant": false,
      "inputs": [
        {
          "name": "_code",
          "type": "string"
        },
        {
          "name": "_cut",
          "type": "string"
        },
        {
          "name": "_color",
          "type": "string"
        },
        {
          "name": "_clarity",
          "type": "string"
        },
        {
          "name": "_carat",
          "type": "string"
        },
        {
          "name": "_remarks",
          "type": "string"
        },
        {
          "name": "_hashedReport",
          "type": "bytes32"
        },
        {
          "name": "_owner",
          "type": "bytes32"
        }
      ],
      "name": "register",
      "outputs": [],
      "payable": false,
      "stateMutability": "nonpayable",
      "type": "function"
    },
    {
      "constant": true,
      "inputs": [],
      "name": "getNumofReports",
      "outputs": [
        {
          "name": "",
          "type": "uint256"
        }
      ],
      "payable": false,
      "stateMutability": "view",
      "type": "function"
    },
    {
      "constant": true,
      "inputs": [
        {
          "name": "code",
          "type": "string"
        }
      ],
      "name": "getReportbyCode",
      "outputs": [
        {
          "name": "",
          "type": "string"
        },
        {
          "name": "",
          "type": "bytes32"
        },
        {
          "name": "",
          "type": "uint32"
        }
      ],
      "payable": false,
      "stateMutability": "view",
      "type": "function"
    }
  ],
  "bytecode": "0x608060405234801561001057600080fd5b506000801b6001819055506000600260006101000a81548163ffffffff021916908363ffffffff160217905550610ec98061004c6000396000f3fe608060405234801561001057600080fd5b506004361061004c5760003560e01c80632625abed146100515780635e0444cc1461006f5780638412ae9814610340578063ccbd913714610703575b600080fd5b610059610851565b6040518082815260200191505060405180910390f35b61009b6004803603602081101561008557600080fd5b810190808035906020019092919050505061085d565b6040518080602001806020018060200180602001806020018060200189815260200188815260200187810387528f818151815260200191508051906020019080838360005b838110156100fb5780820151818401526020810190506100e0565b50505050905090810190601f1680156101285780820380516001836020036101000a031916815260200191505b5087810386528e818151815260200191508051906020019080838360005b83811015610161578082015181840152602081019050610146565b50505050905090810190601f16801561018e5780820380516001836020036101000a031916815260200191505b5087810385528d818151815260200191508051906020019080838360005b838110156101c75780820151818401526020810190506101ac565b50505050905090810190601f1680156101f45780820380516001836020036101000a031916815260200191505b5087810384528c818151815260200191508051906020019080838360005b8381101561022d578082015181840152602081019050610212565b50505050905090810190601f16801561025a5780820380516001836020036101000a031916815260200191505b5087810383528b818151815260200191508051906020019080838360005b83811015610293578082015181840152602081019050610278565b50505050905090810190601f1680156102c05780820380516001836020036101000a031916815260200191505b5087810382528a818151815260200191508051906020019080838360005b838110156102f95780820151818401526020810190506102de565b50505050905090810190601f1680156103265780820380516001836020036101000a031916815260200191505b509e50505050505050505050505050505060405180910390f35b610701600480360361010081101561035757600080fd5b810190808035906020019064010000000081111561037457600080fd5b82018360208201111561038657600080fd5b803590602001918460018302840111640100000000831117156103a857600080fd5b91908080601f016020809104026020016040519081016040528093929190818152602001838380828437600081840152601f19601f8201169050808301925050505050505091929192908035906020019064010000000081111561040b57600080fd5b82018360208201111561041d57600080fd5b8035906020019184600183028401116401000000008311171561043f57600080fd5b91908080601f016020809104026020016040519081016040528093929190818152602001838380828437600081840152601f19601f820116905080830192505050505050509192919290803590602001906401000000008111156104a257600080fd5b8201836020820111156104b457600080fd5b803590602001918460018302840111640100000000831117156104d657600080fd5b91908080601f016020809104026020016040519081016040528093929190818152602001838380828437600081840152601f19601f8201169050808301925050505050505091929192908035906020019064010000000081111561053957600080fd5b82018360208201111561054b57600080fd5b8035906020019184600183028401116401000000008311171561056d57600080fd5b91908080601f016020809104026020016040519081016040528093929190818152602001838380828437600081840152601f19601f820116905080830192505050505050509192919290803590602001906401000000008111156105d057600080fd5b8201836020820111156105e257600080fd5b8035906020019184600183028401116401000000008311171561060457600080fd5b91908080601f016020809104026020016040519081016040528093929190818152602001838380828437600081840152601f19601f8201169050808301925050505050505091929192908035906020019064010000000081111561066757600080fd5b82018360208201111561067957600080fd5b8035906020019184600183028401116401000000008311171561069b57600080fd5b91908080601f016020809104026020016040519081016040528093929190818152602001838380828437600081840152601f19601f8201169050808301925050505050505091929192908035906020019092919080359060200190929190505050610c42565b005b6107bc6004803603602081101561071957600080fd5b810190808035906020019064010000000081111561073657600080fd5b82018360208201111561074857600080fd5b8035906020019184600183028401116401000000008311171561076a57600080fd5b91908080601f016020809104026020016040519081016040528093929190818152602001838380828437600081840152601f19601f820116905080830192505050505050509192919290505050610d84565b60405180806020018481526020018363ffffffff1663ffffffff168152602001828103825285818151815260200191508051906020019080838360005b838110156108145780820151818401526020810190506107f9565b50505050905090810190601f1680156108415780820380516001836020036101000a031916815260200191505b5094505050505060405180910390f35b60008080549050905090565b6000818154811061086a57fe5b9060005260206000209060080201600091509050806000018054600181600116156101000203166002900480601f0160208091040260200160405190810160405280929190818152602001828054600181600116156101000203166002900480156109165780601f106108eb57610100808354040283529160200191610916565b820191906000526020600020905b8154815290600101906020018083116108f957829003601f168201915b505050505090806001018054600181600116156101000203166002900480601f0160208091040260200160405190810160405280929190818152602001828054600181600116156101000203166002900480156109b45780601f10610989576101008083540402835291602001916109b4565b820191906000526020600020905b81548152906001019060200180831161099757829003601f168201915b505050505090806002018054600181600116156101000203166002900480601f016020809104026020016040519081016040528092919081815260200182805460018160011615610100020316600290048015610a525780601f10610a2757610100808354040283529160200191610a52565b820191906000526020600020905b815481529060010190602001808311610a3557829003601f168201915b505050505090806003018054600181600116156101000203166002900480601f016020809104026020016040519081016040528092919081815260200182805460018160011615610100020316600290048015610af05780601f10610ac557610100808354040283529160200191610af0565b820191906000526020600020905b815481529060010190602001808311610ad357829003601f168201915b505050505090806004018054600181600116156101000203166002900480601f016020809104026020016040519081016040528092919081815260200182805460018160011615610100020316600290048015610b8e5780601f10610b6357610100808354040283529160200191610b8e565b820191906000526020600020905b815481529060010190602001808311610b7157829003601f168201915b505050505090806005018054600181600116156101000203166002900480601f016020809104026020016040519081016040528092919081815260200182805460018160011615610100020316600290048015610c2c5780601f10610c0157610100808354040283529160200191610c2c565b820191906000526020600020905b815481529060010190602001808311610c0f57829003601f168201915b5050505050908060060154908060070154905088565b610c4a610dad565b6040518061010001604052808a8152602001898152602001888152602001878152602001868152602001858152602001848152602001838152509050600081908060018154018082558091505090600182039060005260206000209060080201600090919290919091506000820151816000019080519060200190610cd0929190610df8565b506020820151816001019080519060200190610ced929190610df8565b506040820151816002019080519060200190610d0a929190610df8565b506060820151816003019080519060200190610d27929190610df8565b506080820151816004019080519060200190610d44929190610df8565b5060a0820151816005019080519060200190610d61929190610df8565b5060c0820151816006015560e08201518160070155505050505050505050505050565b606060008083600154600260009054906101000a900463ffffffff169250925092509193909250565b60405180610100016040528060608152602001606081526020016060815260200160608152602001606081526020016060815260200160008019168152602001600080191681525090565b828054600181600116156101000203166002900490600052602060002090601f016020900481019282601f10610e3957805160ff1916838001178555610e67565b82800160010185558215610e67579182015b82811115610e66578251825591602001919060010190610e4b565b5b509050610e749190610e78565b5090565b610e9a91905b80821115610e96576000816000905550600101610e7e565b5090565b9056fea165627a7a723058204a448414dc8e53bcd6693a86471b60286f90d252dca10b2ef1b5d76fcf0c216f0029",
  "source": "pragma solidity >=0.4.25 <0.6.0;\n\n\ncontract ReportRegistry {\n    struct reportInfo {\n        string girdleCode;\n        string cut;\n        string color;\n        string clarity;\n        string carat;\n        string remarks;\n\n        bytes32 hashedReport;   // private\n        bytes32 owner;          // private\n    }\n\n    reportInfo[] public registeredReport;\n    bytes32 documentRoot;\n    uint32  blockNumber;\n\n    constructor () public {\n        documentRoot = 0x0;\n        blockNumber = 0;\n    }\n\n    function register( string memory _code, string memory _cut, string memory _color, string memory _clarity, string memory _carat, string memory _remarks, bytes32 _hashedReport, bytes32 _owner) public {\n        // 메모리에 인스턴스 저장\n        reportInfo memory newReport = reportInfo(_code, _cut, _color, _clarity, _carat, _remarks, _hashedReport, _owner);\n        registeredReport.push(newReport);\n    }\n\n    function getNumofReports() public view returns(uint) {\n        return registeredReport.length;\n    }\n\n    function getReportbyCode (string memory code) view public returns (string memory, bytes32, uint32) {\n        return (code, documentRoot, blockNumber);\n    }\n\n\n\n}\n",
  "sourcePath": "/home/dsi/base/zk-diachain/ethereum/contracts/ReportRegistry.sol",
  "compiler": {
    "name": "solc",
    "version": "0.5.8+commit.23d335f2.Emscripten.clang"
  },
  "schemaVersion": "3.0.16",
  "updatedAt": "2019-10-28T09:13:12.494Z",
  "devdoc": {
    "methods": {}
  },
  "userdoc": {
    "methods": {}
  }
}