{
  "contractName": "ReportRegistry",
  "abi": [
    {
      "constant": true,
      "inputs": [
        {
          "name": "interfaceId",
          "type": "bytes4"
        }
      ],
      "name": "supportsInterface",
      "outputs": [
        {
          "name": "",
          "type": "bool"
        }
      ],
      "payable": false,
      "stateMutability": "view",
      "type": "function"
    },
    {
      "constant": true,
      "inputs": [
        {
          "name": "",
          "type": "uint256"
        }
      ],
      "name": "registeredReport",
      "outputs": [
        {
          "name": "girdleCode",
          "type": "string"
        },
        {
          "name": "cut",
          "type": "string"
        },
        {
          "name": "color",
          "type": "string"
        },
        {
          "name": "clarity",
          "type": "string"
        },
        {
          "name": "carat",
          "type": "string"
        },
        {
          "name": "remarks",
          "type": "string"
        },
        {
          "name": "hashedReport",
          "type": "bytes32"
        },
        {
          "name": "owner",
          "type": "bytes32"
        }
      ],
      "payable": false,
      "stateMutability": "view",
      "type": "function"
    },
    {
      "inputs": [],
      "payable": false,
      "stateMutability": "nonpayable",
      "type": "constructor"
    },
    {
      "constant": true,
      "inputs": [
        {
          "name": "_identifier",
          "type": "bytes32"
        }
      ],
      "name": "getAnchorById",
      "outputs": [
        {
          "name": "identifier",
          "type": "bytes32"
        },
        {
          "name": "merkleRoot",
          "type": "bytes32"
        }
      ],
      "payable": false,
      "stateMutability": "view",
      "type": "function"
    },
    {
      "constant": false,
      "inputs": [
        {
          "name": "_code",
          "type": "string"
        },
        {
          "name": "_cut",
          "type": "string"
        },
        {
          "name": "_color",
          "type": "string"
        },
        {
          "name": "_clarity",
          "type": "string"
        },
        {
          "name": "_carat",
          "type": "string"
        },
        {
          "name": "_remarks",
          "type": "string"
        },
        {
          "name": "_hashedReport",
          "type": "bytes32"
        },
        {
          "name": "_owner",
          "type": "bytes32"
        },
        {
          "name": "_reportRoot",
          "type": "bytes32"
        }
      ],
      "name": "register",
      "outputs": [],
      "payable": false,
      "stateMutability": "nonpayable",
      "type": "function"
    },
    {
      "constant": true,
      "inputs": [],
      "name": "getNumofReports",
      "outputs": [
        {
          "name": "",
          "type": "uint256"
        }
      ],
      "payable": false,
      "stateMutability": "view",
      "type": "function"
    }
  ],
  "bytecode": "0x608060405234801561001057600080fd5b506100276301ffc9a760e01b61006e60201b60201c565b6000801b6003819055506000600460006101000a81548163ffffffff021916908363ffffffff1602179055506100696304d466b260e01b61006e60201b60201c565b610176565b63ffffffff60e01b817bffffffffffffffffffffffffffffffffffffffffffffffffffffffff1916141561010a576040517f08c379a000000000000000000000000000000000000000000000000000000000815260040180806020018281038252601c8152602001807f4552433136353a20696e76616c696420696e746572666163652069640000000081525060200191505060405180910390fd5b6001600080837bffffffffffffffffffffffffffffffffffffffffffffffffffffffff19167bffffffffffffffffffffffffffffffffffffffffffffffffffffffff1916815260200190815260200160002060006101000a81548160ff02191690831515021790555050565b610fd4806101856000396000f3fe608060405234801561001057600080fd5b50600436106100575760003560e01c806301ffc9a71461005c57806304d466b2146100c15780632625abed1461010a5780632cc30e9b146101285780635e0444cc146104f5575b600080fd5b6100a76004803603602081101561007257600080fd5b8101908080357bffffffffffffffffffffffffffffffffffffffffffffffffffffffff191690602001909291905050506107c6565b604051808215151515815260200191505060405180910390f35b6100ed600480360360208110156100d757600080fd5b810190808035906020019092919050505061082d565b604051808381526020018281526020019250505060405180910390f35b610112610851565b6040518082815260200191505060405180910390f35b6104f3600480360361012081101561013f57600080fd5b810190808035906020019064010000000081111561015c57600080fd5b82018360208201111561016e57600080fd5b8035906020019184600183028401116401000000008311171561019057600080fd5b91908080601f016020809104026020016040519081016040528093929190818152602001838380828437600081840152601f19601f820116905080830192505050505050509192919290803590602001906401000000008111156101f357600080fd5b82018360208201111561020557600080fd5b8035906020019184600183028401116401000000008311171561022757600080fd5b91908080601f016020809104026020016040519081016040528093929190818152602001838380828437600081840152601f19601f8201169050808301925050505050505091929192908035906020019064010000000081111561028a57600080fd5b82018360208201111561029c57600080fd5b803590602001918460018302840111640100000000831117156102be57600080fd5b91908080601f016020809104026020016040519081016040528093929190818152602001838380828437600081840152601f19601f8201169050808301925050505050505091929192908035906020019064010000000081111561032157600080fd5b82018360208201111561033357600080fd5b8035906020019184600183028401116401000000008311171561035557600080fd5b91908080601f016020809104026020016040519081016040528093929190818152602001838380828437600081840152601f19601f820116905080830192505050505050509192919290803590602001906401000000008111156103b857600080fd5b8201836020820111156103ca57600080fd5b803590602001918460018302840111640100000000831117156103ec57600080fd5b91908080601f016020809104026020016040519081016040528093929190818152602001838380828437600081840152601f19601f8201169050808301925050505050505091929192908035906020019064010000000081111561044f57600080fd5b82018360208201111561046157600080fd5b8035906020019184600183028401116401000000008311171561048357600080fd5b91908080601f016020809104026020016040519081016040528093929190818152602001838380828437600081840152601f19601f82011690508083019250505050505050919291929080359060200190929190803590602001909291908035906020019092919050505061085e565b005b6105216004803603602081101561050b57600080fd5b81019080803590602001909291905050506109ac565b6040518080602001806020018060200180602001806020018060200189815260200188815260200187810387528f818151815260200191508051906020019080838360005b83811015610581578082015181840152602081019050610566565b50505050905090810190601f1680156105ae5780820380516001836020036101000a031916815260200191505b5087810386528e818151815260200191508051906020019080838360005b838110156105e75780820151818401526020810190506105cc565b50505050905090810190601f1680156106145780820380516001836020036101000a031916815260200191505b5087810385528d818151815260200191508051906020019080838360005b8381101561064d578082015181840152602081019050610632565b50505050905090810190601f16801561067a5780820380516001836020036101000a031916815260200191505b5087810384528c818151815260200191508051906020019080838360005b838110156106b3578082015181840152602081019050610698565b50505050905090810190601f1680156106e05780820380516001836020036101000a031916815260200191505b5087810383528b818151815260200191508051906020019080838360005b838110156107195780820151818401526020810190506106fe565b50505050905090810190601f1680156107465780820380516001836020036101000a031916815260200191505b5087810382528a818151815260200191508051906020019080838360005b8381101561077f578082015181840152602081019050610764565b50505050905090810190601f1680156107ac5780820380516001836020036101000a031916815260200191505b509e50505050505050505050505050505060405180910390f35b6000806000837bffffffffffffffffffffffffffffffffffffffffffffffffffffffff19167bffffffffffffffffffffffffffffffffffffffffffffffffffffffff1916815260200190815260200160002060009054906101000a900460ff169050919050565b60008082600160008581526020019081526020016000206000015491509150915091565b6000600280549050905090565b610866610eb8565b6040518061010001604052808b81526020018a81526020018981526020018881526020018781526020018681526020018581526020018481525090506002819080600181540180825580915050906001820390600052602060002090600802016000909192909190915060008201518160000190805190602001906108ec929190610f03565b506020820151816001019080519060200190610909929190610f03565b506040820151816002019080519060200190610926929190610f03565b506060820151816003019080519060200190610943929190610f03565b506080820151816004019080519060200190610960929190610f03565b5060a082015181600501908051906020019061097d929190610f03565b5060c0820151816006015560e082015181600701555050506109a0848383610d91565b50505050505050505050565b600281815481106109b957fe5b9060005260206000209060080201600091509050806000018054600181600116156101000203166002900480601f016020809104026020016040519081016040528092919081815260200182805460018160011615610100020316600290048015610a655780601f10610a3a57610100808354040283529160200191610a65565b820191906000526020600020905b815481529060010190602001808311610a4857829003601f168201915b505050505090806001018054600181600116156101000203166002900480601f016020809104026020016040519081016040528092919081815260200182805460018160011615610100020316600290048015610b035780601f10610ad857610100808354040283529160200191610b03565b820191906000526020600020905b815481529060010190602001808311610ae657829003601f168201915b505050505090806002018054600181600116156101000203166002900480601f016020809104026020016040519081016040528092919081815260200182805460018160011615610100020316600290048015610ba15780601f10610b7657610100808354040283529160200191610ba1565b820191906000526020600020905b815481529060010190602001808311610b8457829003601f168201915b505050505090806003018054600181600116156101000203166002900480601f016020809104026020016040519081016040528092919081815260200182805460018160011615610100020316600290048015610c3f5780601f10610c1457610100808354040283529160200191610c3f565b820191906000526020600020905b815481529060010190602001808311610c2257829003601f168201915b505050505090806004018054600181600116156101000203166002900480601f016020809104026020016040519081016040528092919081815260200182805460018160011615610100020316600290048015610cdd5780601f10610cb257610100808354040283529160200191610cdd565b820191906000526020600020905b815481529060010190602001808311610cc057829003601f168201915b505050505090806005018054600181600116156101000203166002900480601f016020809104026020016040519081016040528092919081815260200182805460018160011615610100020316600290048015610d7b5780601f10610d5057610100808354040283529160200191610d7b565b820191906000526020600020905b815481529060010190602001808311610d5e57829003601f168201915b5050505050908060060154908060070154905088565b6000801b831415610da157600080fd5b6000801b821415610db157600080fd5b60405180604001604052808381526020018281525060016000858152602001908152602001600020600082015181600001556020820151816001016000820151816000019080519060200190610e08929190610f03565b506020820151816001019080519060200190610e25929190610f03565b506040820151816002019080519060200190610e42929190610f03565b506060820151816003019080519060200190610e5f929190610f03565b506080820151816004019080519060200190610e7c929190610f03565b5060a0820151816005019080519060200190610e99929190610f03565b5060c0820151816006015560e082015181600701555050905050505050565b60405180610100016040528060608152602001606081526020016060815260200160608152602001606081526020016060815260200160008019168152602001600080191681525090565b828054600181600116156101000203166002900490600052602060002090601f016020900481019282601f10610f4457805160ff1916838001178555610f72565b82800160010185558215610f72579182015b82811115610f71578251825591602001919060010190610f56565b5b509050610f7f9190610f83565b5090565b610fa591905b80821115610fa1576000816000905550600101610f89565b5090565b9056fea165627a7a72305820323856e6b7f168437bd60bfe1bd303eafd01892e29f7b6c923bcb7ca1dfaa3e50029",
  "source": "pragma solidity >=0.4.25 <0.6.0;\n\nimport \"./AnchorRegistry.sol\";\n\ncontract ReportRegistry is AnchorRegistry {\n\n\n    //==== Report itself ====//\n    struct reportInfo {\n        string girdleCode;\n        string cut;\n        string color;\n        string clarity;\n        string carat;\n        string remarks;\n\n        bytes32 hashedReport;   // private\n        bytes32 owner;          // private\n    }\n\n    //==== Anchor ====//\n    // a represenstation of a report anchor\n    struct Anchor {\n        bytes32 reportRoot; // sha256 ( merkle root of precise-proof merkle tree for the report, \n                            //          signatures)\n        reportInfo details;\n    }\n    mapping (bytes32 => Anchor)  anchors;\n\n\n    reportInfo[] public registeredReport;\n    bytes32 documentRoot;\n    uint32  blockNumber;\n\n    constructor () public {\n        documentRoot = 0x0;\n        blockNumber = 0;\n\n        _registerInterface(InterfaceId_AnchorRegistry);\n    }\n\n    function setAnchorById (bytes32 _anchorId, bytes32 _reportRoot, reportInfo memory _details) internal  {\n        // not allowing empty vals\n        require (_anchorId != 0x0);\n        require (_reportRoot != 0x0);\n\n        anchors[_anchorId] = Anchor(_reportRoot, _details);\n    }\n\n    function getAnchorById (bytes32 _identifier) external view returns (bytes32 identifier, bytes32 merkleRoot) {\n        return (_identifier, anchors[_identifier].reportRoot);\n    }\n\n    function register( string memory _code, string memory _cut, string memory _color, \n                        string memory _clarity, string memory _carat, \n                        string memory _remarks, bytes32 _hashedReport, bytes32 _owner,\n                        bytes32 _reportRoot) public {\n        // 메모리에 인스턴스 저장\n        reportInfo memory newReport = reportInfo(_code, _cut, _color, _clarity, _carat, _remarks, _hashedReport, _owner);\n        registeredReport.push(newReport);\n\n        // Temp.. need to set \"proper\" anchor Id.. ex. hash ( owner, hash(report))\n        setAnchorById (_hashedReport, _reportRoot, newReport);\n    }\n\n    function getNumofReports() public view returns(uint) {\n        return registeredReport.length;\n    }\n\n/*\n    function getReportbyCode (string memory code) view public returns (string memory, bytes32, uint32) {\n        return (code, documentRoot, blockNumber);\n    }\n*/\n\n\n}\n",
  "sourcePath": "/home/dsi/base/zk-diachain/ethereum/contracts/ReportRegistry.sol",
  "compiler": {
    "name": "solc",
    "version": "0.5.8+commit.23d335f2.Emscripten.clang"
  },
  "schemaVersion": "3.0.16",
  "updatedAt": "2019-10-30T13:13:48.875Z",
  "devdoc": {
    "methods": {
      "supportsInterface(bytes4)": {
        "details": "See {IERC165-supportsInterface}.     * Time complexity O(1), guaranteed to always use less than 30 000 gas."
      }
    }
  },
  "userdoc": {
    "methods": {}
  }
}